{
	"contracts/13_arith.sol": {
		"arithmetic": {
			"abi": [
				{
					"inputs": [
						{
							"internalType": "uint256",
							"name": "_a",
							"type": "uint256"
						},
						{
							"internalType": "uint256",
							"name": "_b",
							"type": "uint256"
						}
					],
					"name": "get",
					"outputs": [],
					"stateMutability": "nonpayable",
					"type": "function"
				},
				{
					"inputs": [],
					"name": "operate",
					"outputs": [
						{
							"internalType": "uint256",
							"name": "",
							"type": "uint256"
						},
						{
							"internalType": "uint256",
							"name": "",
							"type": "uint256"
						},
						{
							"internalType": "uint256",
							"name": "",
							"type": "uint256"
						},
						{
							"internalType": "uint256",
							"name": "",
							"type": "uint256"
						}
					],
					"stateMutability": "view",
					"type": "function"
				}
			],
			"devdoc": {
				"kind": "dev",
				"methods": {},
				"version": 1
			},
			"evm": {
				"assembly": "    /* \"contracts/13_arith.sol\":62:393  contract arithmetic {... */\n  mstore(0x40, 0x80)\n  callvalue\n  dup1\n  iszero\n  tag_1\n  jumpi\n  0x00\n  dup1\n  revert\ntag_1:\n  pop\n  dataSize(sub_0)\n  dup1\n  dataOffset(sub_0)\n  0x00\n  codecopy\n  0x00\n  return\nstop\n\nsub_0: assembly {\n        /* \"contracts/13_arith.sol\":62:393  contract arithmetic {... */\n      mstore(0x40, 0x80)\n      callvalue\n      dup1\n      iszero\n      tag_1\n      jumpi\n      0x00\n      dup1\n      revert\n    tag_1:\n      pop\n      jumpi(tag_2, lt(calldatasize, 0x04))\n      shr(0xe0, calldataload(0x00))\n      dup1\n      0x669e48aa\n      eq\n      tag_3\n      jumpi\n      dup1\n      0x7159a618\n      eq\n      tag_4\n      jumpi\n    tag_2:\n      0x00\n      dup1\n      revert\n        /* \"contracts/13_arith.sol\":117:195  function get(uint _a, uint _b) public {... */\n    tag_3:\n      tag_5\n      0x04\n      dup1\n      calldatasize\n      sub\n      dup2\n      add\n      swap1\n      tag_6\n      swap2\n      swap1\n      tag_7\n      jump\t// in\n    tag_6:\n      tag_8\n      jump\t// in\n    tag_5:\n      stop\n        /* \"contracts/13_arith.sol\":201:391  function operate() public view  returns(uint,uint,uint,uint){... */\n    tag_4:\n      tag_9\n      tag_10\n      jump\t// in\n    tag_9:\n      mload(0x40)\n      tag_11\n      swap5\n      swap4\n      swap3\n      swap2\n      swap1\n      tag_12\n      jump\t// in\n    tag_11:\n      mload(0x40)\n      dup1\n      swap2\n      sub\n      swap1\n      return\n        /* \"contracts/13_arith.sol\":117:195  function get(uint _a, uint _b) public {... */\n    tag_8:\n        /* \"contracts/13_arith.sol\":169:171  _a */\n      dup2\n        /* \"contracts/13_arith.sol\":165:166  a */\n      0x00\n        /* \"contracts/13_arith.sol\":165:171  a = _a */\n      dup2\n      swap1\n      sstore\n      pop\n        /* \"contracts/13_arith.sol\":185:187  _b */\n      dup1\n        /* \"contracts/13_arith.sol\":181:182  b */\n      0x01\n        /* \"contracts/13_arith.sol\":181:187  b = _b */\n      dup2\n      swap1\n      sstore\n      pop\n        /* \"contracts/13_arith.sol\":117:195  function get(uint _a, uint _b) public {... */\n      pop\n      pop\n      jump\t// out\n        /* \"contracts/13_arith.sol\":201:391  function operate() public view  returns(uint,uint,uint,uint){... */\n    tag_10:\n        /* \"contracts/13_arith.sol\":241:245  uint */\n      0x00\n        /* \"contracts/13_arith.sol\":246:250  uint */\n      dup1\n        /* \"contracts/13_arith.sol\":251:255  uint */\n      0x00\n        /* \"contracts/13_arith.sol\":256:260  uint */\n      dup1\n        /* \"contracts/13_arith.sol\":271:277  uint c */\n      0x00\n        /* \"contracts/13_arith.sol\":284:285  b */\n      sload(0x01)\n        /* \"contracts/13_arith.sol\":280:281  a */\n      sload(0x00)\n        /* \"contracts/13_arith.sol\":280:285  a + b */\n      tag_15\n      swap2\n      swap1\n      tag_16\n      jump\t// in\n    tag_15:\n        /* \"contracts/13_arith.sol\":271:285  uint c = a + b */\n      swap1\n      pop\n        /* \"contracts/13_arith.sol\":295:301  uint d */\n      0x00\n        /* \"contracts/13_arith.sol\":308:309  b */\n      sload(0x01)\n        /* \"contracts/13_arith.sol\":304:305  a */\n      sload(0x00)\n        /* \"contracts/13_arith.sol\":304:309  a - b */\n      tag_17\n      swap2\n      swap1\n      tag_18\n      jump\t// in\n    tag_17:\n        /* \"contracts/13_arith.sol\":295:309  uint d = a - b */\n      swap1\n      pop\n        /* \"contracts/13_arith.sol\":320:326  uint e */\n      0x00\n        /* \"contracts/13_arith.sol\":333:334  b */\n      sload(0x01)\n        /* \"contracts/13_arith.sol\":329:330  a */\n      sload(0x00)\n        /* \"contracts/13_arith.sol\":329:334  a * b */\n      tag_19\n      swap2\n      swap1\n      tag_20\n      jump\t// in\n    tag_19:\n        /* \"contracts/13_arith.sol\":320:334  uint e = a * b */\n      swap1\n      pop\n        /* \"contracts/13_arith.sol\":344:350  uint f */\n      0x00\n        /* \"contracts/13_arith.sol\":357:358  b */\n      sload(0x01)\n        /* \"contracts/13_arith.sol\":353:354  a */\n      sload(0x00)\n        /* \"contracts/13_arith.sol\":353:358  a / b */\n      tag_21\n      swap2\n      swap1\n      tag_22\n      jump\t// in\n    tag_21:\n        /* \"contracts/13_arith.sol\":344:358  uint f = a / b */\n      swap1\n      pop\n        /* \"contracts/13_arith.sol\":376:377  c */\n      dup4\n        /* \"contracts/13_arith.sol\":378:379  d */\n      dup4\n        /* \"contracts/13_arith.sol\":380:381  e */\n      dup4\n        /* \"contracts/13_arith.sol\":382:383  f */\n      dup4\n        /* \"contracts/13_arith.sol\":369:384  return(c,d,e,f) */\n      swap8\n      pop\n      swap8\n      pop\n      swap8\n      pop\n      swap8\n      pop\n      pop\n      pop\n      pop\n      pop\n        /* \"contracts/13_arith.sol\":201:391  function operate() public view  returns(uint,uint,uint,uint){... */\n      swap1\n      swap2\n      swap3\n      swap4\n      jump\t// out\n        /* \"#utility.yul\":7:146   */\n    tag_24:\n        /* \"#utility.yul\":53:58   */\n      0x00\n        /* \"#utility.yul\":91:97   */\n      dup2\n        /* \"#utility.yul\":78:98   */\n      calldataload\n        /* \"#utility.yul\":69:98   */\n      swap1\n      pop\n        /* \"#utility.yul\":107:140   */\n      tag_26\n        /* \"#utility.yul\":134:139   */\n      dup2\n        /* \"#utility.yul\":107:140   */\n      tag_27\n      jump\t// in\n    tag_26:\n        /* \"#utility.yul\":7:146   */\n      swap3\n      swap2\n      pop\n      pop\n      jump\t// out\n        /* \"#utility.yul\":152:626   */\n    tag_7:\n        /* \"#utility.yul\":220:226   */\n      0x00\n        /* \"#utility.yul\":228:234   */\n      dup1\n        /* \"#utility.yul\":277:279   */\n      0x40\n        /* \"#utility.yul\":265:274   */\n      dup4\n        /* \"#utility.yul\":256:263   */\n      dup6\n        /* \"#utility.yul\":252:275   */\n      sub\n        /* \"#utility.yul\":248:280   */\n      slt\n        /* \"#utility.yul\":245:364   */\n      iszero\n      tag_29\n      jumpi\n        /* \"#utility.yul\":283:362   */\n      tag_30\n      tag_31\n      jump\t// in\n    tag_30:\n        /* \"#utility.yul\":245:364   */\n    tag_29:\n        /* \"#utility.yul\":403:404   */\n      0x00\n        /* \"#utility.yul\":428:481   */\n      tag_32\n        /* \"#utility.yul\":473:480   */\n      dup6\n        /* \"#utility.yul\":464:470   */\n      dup3\n        /* \"#utility.yul\":453:462   */\n      dup7\n        /* \"#utility.yul\":449:471   */\n      add\n        /* \"#utility.yul\":428:481   */\n      tag_24\n      jump\t// in\n    tag_32:\n        /* \"#utility.yul\":418:481   */\n      swap3\n      pop\n        /* \"#utility.yul\":374:491   */\n      pop\n        /* \"#utility.yul\":530:532   */\n      0x20\n        /* \"#utility.yul\":556:609   */\n      tag_33\n        /* \"#utility.yul\":601:608   */\n      dup6\n        /* \"#utility.yul\":592:598   */\n      dup3\n        /* \"#utility.yul\":581:590   */\n      dup7\n        /* \"#utility.yul\":577:599   */\n      add\n        /* \"#utility.yul\":556:609   */\n      tag_24\n      jump\t// in\n    tag_33:\n        /* \"#utility.yul\":546:609   */\n      swap2\n      pop\n        /* \"#utility.yul\":501:619   */\n      pop\n        /* \"#utility.yul\":152:626   */\n      swap3\n      pop\n      swap3\n      swap1\n      pop\n      jump\t// out\n        /* \"#utility.yul\":632:750   */\n    tag_34:\n        /* \"#utility.yul\":719:743   */\n      tag_36\n        /* \"#utility.yul\":737:742   */\n      dup2\n        /* \"#utility.yul\":719:743   */\n      tag_37\n      jump\t// in\n    tag_36:\n        /* \"#utility.yul\":714:717   */\n      dup3\n        /* \"#utility.yul\":707:744   */\n      mstore\n        /* \"#utility.yul\":632:750   */\n      pop\n      pop\n      jump\t// out\n        /* \"#utility.yul\":756:1309   */\n    tag_12:\n        /* \"#utility.yul\":933:937   */\n      0x00\n        /* \"#utility.yul\":971:974   */\n      0x80\n        /* \"#utility.yul\":960:969   */\n      dup3\n        /* \"#utility.yul\":956:975   */\n      add\n        /* \"#utility.yul\":948:975   */\n      swap1\n      pop\n        /* \"#utility.yul\":985:1056   */\n      tag_39\n        /* \"#utility.yul\":1053:1054   */\n      0x00\n        /* \"#utility.yul\":1042:1051   */\n      dup4\n        /* \"#utility.yul\":1038:1055   */\n      add\n        /* \"#utility.yul\":1029:1035   */\n      dup8\n        /* \"#utility.yul\":985:1056   */\n      tag_34\n      jump\t// in\n    tag_39:\n        /* \"#utility.yul\":1066:1138   */\n      tag_40\n        /* \"#utility.yul\":1134:1136   */\n      0x20\n        /* \"#utility.yul\":1123:1132   */\n      dup4\n        /* \"#utility.yul\":1119:1137   */\n      add\n        /* \"#utility.yul\":1110:1116   */\n      dup7\n        /* \"#utility.yul\":1066:1138   */\n      tag_34\n      jump\t// in\n    tag_40:\n        /* \"#utility.yul\":1148:1220   */\n      tag_41\n        /* \"#utility.yul\":1216:1218   */\n      0x40\n        /* \"#utility.yul\":1205:1214   */\n      dup4\n        /* \"#utility.yul\":1201:1219   */\n      add\n        /* \"#utility.yul\":1192:1198   */\n      dup6\n        /* \"#utility.yul\":1148:1220   */\n      tag_34\n      jump\t// in\n    tag_41:\n        /* \"#utility.yul\":1230:1302   */\n      tag_42\n        /* \"#utility.yul\":1298:1300   */\n      0x60\n        /* \"#utility.yul\":1287:1296   */\n      dup4\n        /* \"#utility.yul\":1283:1301   */\n      add\n        /* \"#utility.yul\":1274:1280   */\n      dup5\n        /* \"#utility.yul\":1230:1302   */\n      tag_34\n      jump\t// in\n    tag_42:\n        /* \"#utility.yul\":756:1309   */\n      swap6\n      swap5\n      pop\n      pop\n      pop\n      pop\n      pop\n      jump\t// out\n        /* \"#utility.yul\":1396:1701   */\n    tag_16:\n        /* \"#utility.yul\":1436:1439   */\n      0x00\n        /* \"#utility.yul\":1455:1475   */\n      tag_46\n        /* \"#utility.yul\":1473:1474   */\n      dup3\n        /* \"#utility.yul\":1455:1475   */\n      tag_37\n      jump\t// in\n    tag_46:\n        /* \"#utility.yul\":1450:1475   */\n      swap2\n      pop\n        /* \"#utility.yul\":1489:1509   */\n      tag_47\n        /* \"#utility.yul\":1507:1508   */\n      dup4\n        /* \"#utility.yul\":1489:1509   */\n      tag_37\n      jump\t// in\n    tag_47:\n        /* \"#utility.yul\":1484:1509   */\n      swap3\n      pop\n        /* \"#utility.yul\":1643:1644   */\n      dup3\n        /* \"#utility.yul\":1575:1641   */\n      0xffffffffffffffffffffffffffffffffffffffffffffffffffffffffffffffff\n        /* \"#utility.yul\":1571:1645   */\n      sub\n        /* \"#utility.yul\":1568:1569   */\n      dup3\n        /* \"#utility.yul\":1565:1646   */\n      gt\n        /* \"#utility.yul\":1562:1669   */\n      iszero\n      tag_48\n      jumpi\n        /* \"#utility.yul\":1649:1667   */\n      tag_49\n      tag_50\n      jump\t// in\n    tag_49:\n        /* \"#utility.yul\":1562:1669   */\n    tag_48:\n        /* \"#utility.yul\":1693:1694   */\n      dup3\n        /* \"#utility.yul\":1690:1691   */\n      dup3\n        /* \"#utility.yul\":1686:1695   */\n      add\n        /* \"#utility.yul\":1679:1695   */\n      swap1\n      pop\n        /* \"#utility.yul\":1396:1701   */\n      swap3\n      swap2\n      pop\n      pop\n      jump\t// out\n        /* \"#utility.yul\":1707:1892   */\n    tag_22:\n        /* \"#utility.yul\":1747:1748   */\n      0x00\n        /* \"#utility.yul\":1764:1784   */\n      tag_52\n        /* \"#utility.yul\":1782:1783   */\n      dup3\n        /* \"#utility.yul\":1764:1784   */\n      tag_37\n      jump\t// in\n    tag_52:\n        /* \"#utility.yul\":1759:1784   */\n      swap2\n      pop\n        /* \"#utility.yul\":1798:1818   */\n      tag_53\n        /* \"#utility.yul\":1816:1817   */\n      dup4\n        /* \"#utility.yul\":1798:1818   */\n      tag_37\n      jump\t// in\n    tag_53:\n        /* \"#utility.yul\":1793:1818   */\n      swap3\n      pop\n        /* \"#utility.yul\":1837:1838   */\n      dup3\n        /* \"#utility.yul\":1827:1862   */\n      tag_54\n      jumpi\n        /* \"#utility.yul\":1842:1860   */\n      tag_55\n      tag_56\n      jump\t// in\n    tag_55:\n        /* \"#utility.yul\":1827:1862   */\n    tag_54:\n        /* \"#utility.yul\":1884:1885   */\n      dup3\n        /* \"#utility.yul\":1881:1882   */\n      dup3\n        /* \"#utility.yul\":1877:1886   */\n      div\n        /* \"#utility.yul\":1872:1886   */\n      swap1\n      pop\n        /* \"#utility.yul\":1707:1892   */\n      swap3\n      swap2\n      pop\n      pop\n      jump\t// out\n        /* \"#utility.yul\":1898:2246   */\n    tag_20:\n        /* \"#utility.yul\":1938:1945   */\n      0x00\n        /* \"#utility.yul\":1961:1981   */\n      tag_58\n        /* \"#utility.yul\":1979:1980   */\n      dup3\n        /* \"#utility.yul\":1961:1981   */\n      tag_37\n      jump\t// in\n    tag_58:\n        /* \"#utility.yul\":1956:1981   */\n      swap2\n      pop\n        /* \"#utility.yul\":1995:2015   */\n      tag_59\n        /* \"#utility.yul\":2013:2014   */\n      dup4\n        /* \"#utility.yul\":1995:2015   */\n      tag_37\n      jump\t// in\n    tag_59:\n        /* \"#utility.yul\":1990:2015   */\n      swap3\n      pop\n        /* \"#utility.yul\":2183:2184   */\n      dup2\n        /* \"#utility.yul\":2115:2181   */\n      0xffffffffffffffffffffffffffffffffffffffffffffffffffffffffffffffff\n        /* \"#utility.yul\":2111:2185   */\n      div\n        /* \"#utility.yul\":2108:2109   */\n      dup4\n        /* \"#utility.yul\":2105:2186   */\n      gt\n        /* \"#utility.yul\":2100:2101   */\n      dup3\n        /* \"#utility.yul\":2093:2102   */\n      iszero\n        /* \"#utility.yul\":2086:2103   */\n      iszero\n        /* \"#utility.yul\":2082:2187   */\n      and\n        /* \"#utility.yul\":2079:2210   */\n      iszero\n      tag_60\n      jumpi\n        /* \"#utility.yul\":2190:2208   */\n      tag_61\n      tag_50\n      jump\t// in\n    tag_61:\n        /* \"#utility.yul\":2079:2210   */\n    tag_60:\n        /* \"#utility.yul\":2238:2239   */\n      dup3\n        /* \"#utility.yul\":2235:2236   */\n      dup3\n        /* \"#utility.yul\":2231:2240   */\n      mul\n        /* \"#utility.yul\":2220:2240   */\n      swap1\n      pop\n        /* \"#utility.yul\":1898:2246   */\n      swap3\n      swap2\n      pop\n      pop\n      jump\t// out\n        /* \"#utility.yul\":2252:2443   */\n    tag_18:\n        /* \"#utility.yul\":2292:2296   */\n      0x00\n        /* \"#utility.yul\":2312:2332   */\n      tag_63\n        /* \"#utility.yul\":2330:2331   */\n      dup3\n        /* \"#utility.yul\":2312:2332   */\n      tag_37\n      jump\t// in\n    tag_63:\n        /* \"#utility.yul\":2307:2332   */\n      swap2\n      pop\n        /* \"#utility.yul\":2346:2366   */\n      tag_64\n        /* \"#utility.yul\":2364:2365   */\n      dup4\n        /* \"#utility.yul\":2346:2366   */\n      tag_37\n      jump\t// in\n    tag_64:\n        /* \"#utility.yul\":2341:2366   */\n      swap3\n      pop\n        /* \"#utility.yul\":2385:2386   */\n      dup3\n        /* \"#utility.yul\":2382:2383   */\n      dup3\n        /* \"#utility.yul\":2379:2387   */\n      lt\n        /* \"#utility.yul\":2376:2410   */\n      iszero\n      tag_65\n      jumpi\n        /* \"#utility.yul\":2390:2408   */\n      tag_66\n      tag_50\n      jump\t// in\n    tag_66:\n        /* \"#utility.yul\":2376:2410   */\n    tag_65:\n        /* \"#utility.yul\":2435:2436   */\n      dup3\n        /* \"#utility.yul\":2432:2433   */\n      dup3\n        /* \"#utility.yul\":2428:2437   */\n      sub\n        /* \"#utility.yul\":2420:2437   */\n      swap1\n      pop\n        /* \"#utility.yul\":2252:2443   */\n      swap3\n      swap2\n      pop\n      pop\n      jump\t// out\n        /* \"#utility.yul\":2449:2526   */\n    tag_37:\n        /* \"#utility.yul\":2486:2493   */\n      0x00\n        /* \"#utility.yul\":2515:2520   */\n      dup2\n        /* \"#utility.yul\":2504:2520   */\n      swap1\n      pop\n        /* \"#utility.yul\":2449:2526   */\n      swap2\n      swap1\n      pop\n      jump\t// out\n        /* \"#utility.yul\":2532:2712   */\n    tag_50:\n        /* \"#utility.yul\":2580:2657   */\n      0x4e487b7100000000000000000000000000000000000000000000000000000000\n        /* \"#utility.yul\":2577:2578   */\n      0x00\n        /* \"#utility.yul\":2570:2658   */\n      mstore\n        /* \"#utility.yul\":2677:2681   */\n      0x11\n        /* \"#utility.yul\":2674:2675   */\n      0x04\n        /* \"#utility.yul\":2667:2682   */\n      mstore\n        /* \"#utility.yul\":2701:2705   */\n      0x24\n        /* \"#utility.yul\":2698:2699   */\n      0x00\n        /* \"#utility.yul\":2691:2706   */\n      revert\n        /* \"#utility.yul\":2718:2898   */\n    tag_56:\n        /* \"#utility.yul\":2766:2843   */\n      0x4e487b7100000000000000000000000000000000000000000000000000000000\n        /* \"#utility.yul\":2763:2764   */\n      0x00\n        /* \"#utility.yul\":2756:2844   */\n      mstore\n        /* \"#utility.yul\":2863:2867   */\n      0x12\n        /* \"#utility.yul\":2860:2861   */\n      0x04\n        /* \"#utility.yul\":2853:2868   */\n      mstore\n        /* \"#utility.yul\":2887:2891   */\n      0x24\n        /* \"#utility.yul\":2884:2885   */\n      0x00\n        /* \"#utility.yul\":2877:2892   */\n      revert\n        /* \"#utility.yul\":3027:3144   */\n    tag_31:\n        /* \"#utility.yul\":3136:3137   */\n      0x00\n        /* \"#utility.yul\":3133:3134   */\n      dup1\n        /* \"#utility.yul\":3126:3138   */\n      revert\n        /* \"#utility.yul\":3150:3272   */\n    tag_27:\n        /* \"#utility.yul\":3223:3247   */\n      tag_74\n        /* \"#utility.yul\":3241:3246   */\n      dup2\n        /* \"#utility.yul\":3223:3247   */\n      tag_37\n      jump\t// in\n    tag_74:\n        /* \"#utility.yul\":3216:3221   */\n      dup2\n        /* \"#utility.yul\":3213:3248   */\n      eq\n        /* \"#utility.yul\":3203:3266   */\n      tag_75\n      jumpi\n        /* \"#utility.yul\":3262:3263   */\n      0x00\n        /* \"#utility.yul\":3259:3260   */\n      dup1\n        /* \"#utility.yul\":3252:3264   */\n      revert\n        /* \"#utility.yul\":3203:3266   */\n    tag_75:\n        /* \"#utility.yul\":3150:3272   */\n      pop\n      jump\t// out\n\n    auxdata: 0xa2646970667358221220b1d2a9372e3b668dbf337ff09e421b99f7c16a5fc1a9eddc1bd315c8d1fdf94764736f6c63430008070033\n}\n",
				"bytecode": {
					"linkReferences": {},
					"object": "608060405234801561001057600080fd5b5061036e806100206000396000f3fe608060405234801561001057600080fd5b50600436106100365760003560e01c8063669e48aa1461003b5780637159a61814610057575b600080fd5b6100556004803603810190610050919061010b565b610078565b005b61005f61008a565b60405161006f949392919061015a565b60405180910390f35b81600081905550806001819055505050565b60008060008060006001546000546100a2919061019f565b905060006001546000546100b69190610280565b905060006001546000546100ca9190610226565b905060006001546000546100de91906101f5565b90508383838397509750975097505050505090919293565b60008135905061010581610321565b92915050565b600080604083850312156101225761012161031c565b5b6000610130858286016100f6565b9250506020610141858286016100f6565b9150509250929050565b610154816102b4565b82525050565b600060808201905061016f600083018761014b565b61017c602083018661014b565b610189604083018561014b565b610196606083018461014b565b95945050505050565b60006101aa826102b4565b91506101b5836102b4565b9250827fffffffffffffffffffffffffffffffffffffffffffffffffffffffffffffffff038211156101ea576101e96102be565b5b828201905092915050565b6000610200826102b4565b915061020b836102b4565b92508261021b5761021a6102ed565b5b828204905092915050565b6000610231826102b4565b915061023c836102b4565b9250817fffffffffffffffffffffffffffffffffffffffffffffffffffffffffffffffff0483118215151615610275576102746102be565b5b828202905092915050565b600061028b826102b4565b9150610296836102b4565b9250828210156102a9576102a86102be565b5b828203905092915050565b6000819050919050565b7f4e487b7100000000000000000000000000000000000000000000000000000000600052601160045260246000fd5b7f4e487b7100000000000000000000000000000000000000000000000000000000600052601260045260246000fd5b600080fd5b61032a816102b4565b811461033557600080fd5b5056fea2646970667358221220b1d2a9372e3b668dbf337ff09e421b99f7c16a5fc1a9eddc1bd315c8d1fdf94764736f6c63430008070033",
					"opcodes": "PUSH1 0x80 PUSH1 0x40 MSTORE CALLVALUE DUP1 ISZERO PUSH2 0x10 JUMPI PUSH1 0x0 DUP1 REVERT JUMPDEST POP PUSH2 0x36E DUP1 PUSH2 0x20 PUSH1 0x0 CODECOPY PUSH1 0x0 RETURN INVALID PUSH1 0x80 PUSH1 0x40 MSTORE CALLVALUE DUP1 ISZERO PUSH2 0x10 JUMPI PUSH1 0x0 DUP1 REVERT JUMPDEST POP PUSH1 0x4 CALLDATASIZE LT PUSH2 0x36 JUMPI PUSH1 0x0 CALLDATALOAD PUSH1 0xE0 SHR DUP1 PUSH4 0x669E48AA EQ PUSH2 0x3B JUMPI DUP1 PUSH4 0x7159A618 EQ PUSH2 0x57 JUMPI JUMPDEST PUSH1 0x0 DUP1 REVERT JUMPDEST PUSH2 0x55 PUSH1 0x4 DUP1 CALLDATASIZE SUB DUP2 ADD SWAP1 PUSH2 0x50 SWAP2 SWAP1 PUSH2 0x10B JUMP JUMPDEST PUSH2 0x78 JUMP JUMPDEST STOP JUMPDEST PUSH2 0x5F PUSH2 0x8A JUMP JUMPDEST PUSH1 0x40 MLOAD PUSH2 0x6F SWAP5 SWAP4 SWAP3 SWAP2 SWAP1 PUSH2 0x15A JUMP JUMPDEST PUSH1 0x40 MLOAD DUP1 SWAP2 SUB SWAP1 RETURN JUMPDEST DUP2 PUSH1 0x0 DUP2 SWAP1 SSTORE POP DUP1 PUSH1 0x1 DUP2 SWAP1 SSTORE POP POP POP JUMP JUMPDEST PUSH1 0x0 DUP1 PUSH1 0x0 DUP1 PUSH1 0x0 PUSH1 0x1 SLOAD PUSH1 0x0 SLOAD PUSH2 0xA2 SWAP2 SWAP1 PUSH2 0x19F JUMP JUMPDEST SWAP1 POP PUSH1 0x0 PUSH1 0x1 SLOAD PUSH1 0x0 SLOAD PUSH2 0xB6 SWAP2 SWAP1 PUSH2 0x280 JUMP JUMPDEST SWAP1 POP PUSH1 0x0 PUSH1 0x1 SLOAD PUSH1 0x0 SLOAD PUSH2 0xCA SWAP2 SWAP1 PUSH2 0x226 JUMP JUMPDEST SWAP1 POP PUSH1 0x0 PUSH1 0x1 SLOAD PUSH1 0x0 SLOAD PUSH2 0xDE SWAP2 SWAP1 PUSH2 0x1F5 JUMP JUMPDEST SWAP1 POP DUP4 DUP4 DUP4 DUP4 SWAP8 POP SWAP8 POP SWAP8 POP SWAP8 POP POP POP POP POP SWAP1 SWAP2 SWAP3 SWAP4 JUMP JUMPDEST PUSH1 0x0 DUP2 CALLDATALOAD SWAP1 POP PUSH2 0x105 DUP2 PUSH2 0x321 JUMP JUMPDEST SWAP3 SWAP2 POP POP JUMP JUMPDEST PUSH1 0x0 DUP1 PUSH1 0x40 DUP4 DUP6 SUB SLT ISZERO PUSH2 0x122 JUMPI PUSH2 0x121 PUSH2 0x31C JUMP JUMPDEST JUMPDEST PUSH1 0x0 PUSH2 0x130 DUP6 DUP3 DUP7 ADD PUSH2 0xF6 JUMP JUMPDEST SWAP3 POP POP PUSH1 0x20 PUSH2 0x141 DUP6 DUP3 DUP7 ADD PUSH2 0xF6 JUMP JUMPDEST SWAP2 POP POP SWAP3 POP SWAP3 SWAP1 POP JUMP JUMPDEST PUSH2 0x154 DUP2 PUSH2 0x2B4 JUMP JUMPDEST DUP3 MSTORE POP POP JUMP JUMPDEST PUSH1 0x0 PUSH1 0x80 DUP3 ADD SWAP1 POP PUSH2 0x16F PUSH1 0x0 DUP4 ADD DUP8 PUSH2 0x14B JUMP JUMPDEST PUSH2 0x17C PUSH1 0x20 DUP4 ADD DUP7 PUSH2 0x14B JUMP JUMPDEST PUSH2 0x189 PUSH1 0x40 DUP4 ADD DUP6 PUSH2 0x14B JUMP JUMPDEST PUSH2 0x196 PUSH1 0x60 DUP4 ADD DUP5 PUSH2 0x14B JUMP JUMPDEST SWAP6 SWAP5 POP POP POP POP POP JUMP JUMPDEST PUSH1 0x0 PUSH2 0x1AA DUP3 PUSH2 0x2B4 JUMP JUMPDEST SWAP2 POP PUSH2 0x1B5 DUP4 PUSH2 0x2B4 JUMP JUMPDEST SWAP3 POP DUP3 PUSH32 0xFFFFFFFFFFFFFFFFFFFFFFFFFFFFFFFFFFFFFFFFFFFFFFFFFFFFFFFFFFFFFFFF SUB DUP3 GT ISZERO PUSH2 0x1EA JUMPI PUSH2 0x1E9 PUSH2 0x2BE JUMP JUMPDEST JUMPDEST DUP3 DUP3 ADD SWAP1 POP SWAP3 SWAP2 POP POP JUMP JUMPDEST PUSH1 0x0 PUSH2 0x200 DUP3 PUSH2 0x2B4 JUMP JUMPDEST SWAP2 POP PUSH2 0x20B DUP4 PUSH2 0x2B4 JUMP JUMPDEST SWAP3 POP DUP3 PUSH2 0x21B JUMPI PUSH2 0x21A PUSH2 0x2ED JUMP JUMPDEST JUMPDEST DUP3 DUP3 DIV SWAP1 POP SWAP3 SWAP2 POP POP JUMP JUMPDEST PUSH1 0x0 PUSH2 0x231 DUP3 PUSH2 0x2B4 JUMP JUMPDEST SWAP2 POP PUSH2 0x23C DUP4 PUSH2 0x2B4 JUMP JUMPDEST SWAP3 POP DUP2 PUSH32 0xFFFFFFFFFFFFFFFFFFFFFFFFFFFFFFFFFFFFFFFFFFFFFFFFFFFFFFFFFFFFFFFF DIV DUP4 GT DUP3 ISZERO ISZERO AND ISZERO PUSH2 0x275 JUMPI PUSH2 0x274 PUSH2 0x2BE JUMP JUMPDEST JUMPDEST DUP3 DUP3 MUL SWAP1 POP SWAP3 SWAP2 POP POP JUMP JUMPDEST PUSH1 0x0 PUSH2 0x28B DUP3 PUSH2 0x2B4 JUMP JUMPDEST SWAP2 POP PUSH2 0x296 DUP4 PUSH2 0x2B4 JUMP JUMPDEST SWAP3 POP DUP3 DUP3 LT ISZERO PUSH2 0x2A9 JUMPI PUSH2 0x2A8 PUSH2 0x2BE JUMP JUMPDEST JUMPDEST DUP3 DUP3 SUB SWAP1 POP SWAP3 SWAP2 POP POP JUMP JUMPDEST PUSH1 0x0 DUP2 SWAP1 POP SWAP2 SWAP1 POP JUMP JUMPDEST PUSH32 0x4E487B7100000000000000000000000000000000000000000000000000000000 PUSH1 0x0 MSTORE PUSH1 0x11 PUSH1 0x4 MSTORE PUSH1 0x24 PUSH1 0x0 REVERT JUMPDEST PUSH32 0x4E487B7100000000000000000000000000000000000000000000000000000000 PUSH1 0x0 MSTORE PUSH1 0x12 PUSH1 0x4 MSTORE PUSH1 0x24 PUSH1 0x0 REVERT JUMPDEST PUSH1 0x0 DUP1 REVERT JUMPDEST PUSH2 0x32A DUP2 PUSH2 0x2B4 JUMP JUMPDEST DUP2 EQ PUSH2 0x335 JUMPI PUSH1 0x0 DUP1 REVERT JUMPDEST POP JUMP INVALID LOG2 PUSH5 0x6970667358 0x22 SLT KECCAK256 0xB1 0xD2 0xA9 CALLDATACOPY 0x2E EXTCODESIZE PUSH7 0x8DBF337FF09E42 SHL SWAP10 0xF7 0xC1 PUSH11 0x5FC1A9EDDC1BD315C8D1FD 0xF9 SELFBALANCE PUSH5 0x736F6C6343 STOP ADDMOD SMOD STOP CALLER "
				},
				"gasEstimates": {
					"creation": {
						"codeDepositCost": "175600",
						"executionCost": "220",
						"totalCost": "175820"
					},
					"external": {
						"get(uint256,uint256)": "infinite",
						"operate()": "infinite"
					}
				},
				"methodIdentifiers": {
					"get(uint256,uint256)": "669e48aa",
					"operate()": "7159a618"
				}
			},
			"storageLayout": {
				"storage": [
					{
						"astId": 3,
						"contract": "contracts/13_arith.sol:arithmetic",
						"label": "a",
						"offset": 0,
						"slot": "0",
						"type": "t_uint256"
					},
					{
						"astId": 5,
						"contract": "contracts/13_arith.sol:arithmetic",
						"label": "b",
						"offset": 0,
						"slot": "1",
						"type": "t_uint256"
					}
				],
				"types": {
					"t_uint256": {
						"encoding": "inplace",
						"label": "uint256",
						"numberOfBytes": "32"
					}
				}
			},
			"userdoc": {
				"kind": "user",
				"methods": {},
				"version": 1
			}
		}
	}
}