{
	"contracts/15_error.sol": {
		"ErrorHanding": {
			"abi": [
				{
					"inputs": [],
					"name": "num",
					"outputs": [
						{
							"internalType": "uint256",
							"name": "",
							"type": "uint256"
						}
					],
					"stateMutability": "view",
					"type": "function"
				},
				{
					"inputs": [],
					"name": "testAssert",
					"outputs": [],
					"stateMutability": "view",
					"type": "function"
				},
				{
					"inputs": [
						{
							"internalType": "uint256",
							"name": "_i",
							"type": "uint256"
						}
					],
					"name": "testRequire",
					"outputs": [],
					"stateMutability": "pure",
					"type": "function"
				},
				{
					"inputs": [
						{
							"internalType": "uint256",
							"name": "_i",
							"type": "uint256"
						}
					],
					"name": "testRevert",
					"outputs": [],
					"stateMutability": "pure",
					"type": "function"
				}
			],
			"devdoc": {
				"kind": "dev",
				"methods": {},
				"version": 1
			},
			"evm": {
				"assembly": "    /* \"contracts/15_error.sol\":62:448  contract ErrorHanding {... */\n  mstore(0x40, 0x80)\n  callvalue\n  dup1\n  iszero\n  tag_1\n  jumpi\n  0x00\n  dup1\n  revert\ntag_1:\n  pop\n  dataSize(sub_0)\n  dup1\n  dataOffset(sub_0)\n  0x00\n  codecopy\n  0x00\n  return\nstop\n\nsub_0: assembly {\n        /* \"contracts/15_error.sol\":62:448  contract ErrorHanding {... */\n      mstore(0x40, 0x80)\n      callvalue\n      dup1\n      iszero\n      tag_1\n      jumpi\n      0x00\n      dup1\n      revert\n    tag_1:\n      pop\n      jumpi(tag_2, lt(calldatasize, 0x04))\n      shr(0xe0, calldataload(0x00))\n      dup1\n      0x20987767\n      eq\n      tag_3\n      jumpi\n      dup1\n      0x2b813bc0\n      eq\n      tag_4\n      jumpi\n      dup1\n      0x4e70b1dc\n      eq\n      tag_5\n      jumpi\n      dup1\n      0xb8bd717f\n      eq\n      tag_6\n      jumpi\n    tag_2:\n      0x00\n      dup1\n      revert\n        /* \"contracts/15_error.sol\":204:340  function testRevert(uint _i) public pure {... */\n    tag_3:\n      tag_7\n      0x04\n      dup1\n      calldatasize\n      sub\n      dup2\n      add\n      swap1\n      tag_8\n      swap2\n      swap1\n      tag_9\n      jump\t// in\n    tag_8:\n      tag_10\n      jump\t// in\n    tag_7:\n      stop\n        /* \"contracts/15_error.sol\":368:446  function testAssert() public view {... */\n    tag_4:\n      tag_11\n      tag_12\n      jump\t// in\n    tag_11:\n      stop\n        /* \"contracts/15_error.sol\":346:361  uint public num */\n    tag_5:\n      tag_13\n      tag_14\n      jump\t// in\n    tag_13:\n      mload(0x40)\n      tag_15\n      swap2\n      swap1\n      tag_16\n      jump\t// in\n    tag_15:\n      mload(0x40)\n      dup1\n      swap2\n      sub\n      swap1\n      return\n        /* \"contracts/15_error.sol\":90:198  function testRequire(uint _i) public pure {... */\n    tag_6:\n      tag_17\n      0x04\n      dup1\n      calldatasize\n      sub\n      dup2\n      add\n      swap1\n      tag_18\n      swap2\n      swap1\n      tag_9\n      jump\t// in\n    tag_18:\n      tag_19\n      jump\t// in\n    tag_17:\n      stop\n        /* \"contracts/15_error.sol\":204:340  function testRevert(uint _i) public pure {... */\n    tag_10:\n        /* \"contracts/15_error.sol\":265:267  10 */\n      0x0a\n        /* \"contracts/15_error.sol\":259:261  _i */\n      dup2\n        /* \"contracts/15_error.sol\":259:267  _i <= 10 */\n      gt\n        /* \"contracts/15_error.sol\":255:334  if (_i <= 10) {... */\n      tag_21\n      jumpi\n        /* \"contracts/15_error.sol\":283:323  revert(\"Input must be greater than 10 \") */\n      mload(0x40)\n      0x08c379a000000000000000000000000000000000000000000000000000000000\n      dup2\n      mstore\n      0x04\n      add\n      tag_22\n      swap1\n      tag_23\n      jump\t// in\n    tag_22:\n      mload(0x40)\n      dup1\n      swap2\n      sub\n      swap1\n      revert\n        /* \"contracts/15_error.sol\":255:334  if (_i <= 10) {... */\n    tag_21:\n        /* \"contracts/15_error.sol\":204:340  function testRevert(uint _i) public pure {... */\n      pop\n      jump\t// out\n        /* \"contracts/15_error.sol\":368:446  function testAssert() public view {... */\n    tag_12:\n        /* \"contracts/15_error.sol\":427:428  0 */\n      0x00\n        /* \"contracts/15_error.sol\":420:423  num */\n      dup1\n      sload\n        /* \"contracts/15_error.sol\":420:428  num == 0 */\n      eq\n        /* \"contracts/15_error.sol\":412:429  assert( num == 0) */\n      tag_25\n      jumpi\n      tag_26\n      tag_27\n      jump\t// in\n    tag_26:\n    tag_25:\n        /* \"contracts/15_error.sol\":368:446  function testAssert() public view {... */\n      jump\t// out\n        /* \"contracts/15_error.sol\":346:361  uint public num */\n    tag_14:\n      sload(0x00)\n      dup2\n      jump\t// out\n        /* \"contracts/15_error.sol\":90:198  function testRequire(uint _i) public pure {... */\n    tag_19:\n        /* \"contracts/15_error.sol\":155:157  10 */\n      0x0a\n        /* \"contracts/15_error.sol\":150:152  _i */\n      dup2\n        /* \"contracts/15_error.sol\":150:157  _i > 10 */\n      gt\n        /* \"contracts/15_error.sol\":142:191  require(_i > 10, \"Input must be greater than 10\") */\n      tag_29\n      jumpi\n      mload(0x40)\n      0x08c379a000000000000000000000000000000000000000000000000000000000\n      dup2\n      mstore\n      0x04\n      add\n      tag_30\n      swap1\n      tag_31\n      jump\t// in\n    tag_30:\n      mload(0x40)\n      dup1\n      swap2\n      sub\n      swap1\n      revert\n    tag_29:\n        /* \"contracts/15_error.sol\":90:198  function testRequire(uint _i) public pure {... */\n      pop\n      jump\t// out\n        /* \"#utility.yul\":7:146   */\n    tag_33:\n        /* \"#utility.yul\":53:58   */\n      0x00\n        /* \"#utility.yul\":91:97   */\n      dup2\n        /* \"#utility.yul\":78:98   */\n      calldataload\n        /* \"#utility.yul\":69:98   */\n      swap1\n      pop\n        /* \"#utility.yul\":107:140   */\n      tag_35\n        /* \"#utility.yul\":134:139   */\n      dup2\n        /* \"#utility.yul\":107:140   */\n      tag_36\n      jump\t// in\n    tag_35:\n        /* \"#utility.yul\":7:146   */\n      swap3\n      swap2\n      pop\n      pop\n      jump\t// out\n        /* \"#utility.yul\":152:481   */\n    tag_9:\n        /* \"#utility.yul\":211:217   */\n      0x00\n        /* \"#utility.yul\":260:262   */\n      0x20\n        /* \"#utility.yul\":248:257   */\n      dup3\n        /* \"#utility.yul\":239:246   */\n      dup5\n        /* \"#utility.yul\":235:258   */\n      sub\n        /* \"#utility.yul\":231:263   */\n      slt\n        /* \"#utility.yul\":228:347   */\n      iszero\n      tag_38\n      jumpi\n        /* \"#utility.yul\":266:345   */\n      tag_39\n      tag_40\n      jump\t// in\n    tag_39:\n        /* \"#utility.yul\":228:347   */\n    tag_38:\n        /* \"#utility.yul\":386:387   */\n      0x00\n        /* \"#utility.yul\":411:464   */\n      tag_41\n        /* \"#utility.yul\":456:463   */\n      dup5\n        /* \"#utility.yul\":447:453   */\n      dup3\n        /* \"#utility.yul\":436:445   */\n      dup6\n        /* \"#utility.yul\":432:454   */\n      add\n        /* \"#utility.yul\":411:464   */\n      tag_33\n      jump\t// in\n    tag_41:\n        /* \"#utility.yul\":401:464   */\n      swap2\n      pop\n        /* \"#utility.yul\":357:474   */\n      pop\n        /* \"#utility.yul\":152:481   */\n      swap3\n      swap2\n      pop\n      pop\n      jump\t// out\n        /* \"#utility.yul\":487:853   */\n    tag_42:\n        /* \"#utility.yul\":629:632   */\n      0x00\n        /* \"#utility.yul\":650:717   */\n      tag_44\n        /* \"#utility.yul\":714:716   */\n      0x1e\n        /* \"#utility.yul\":709:712   */\n      dup4\n        /* \"#utility.yul\":650:717   */\n      tag_45\n      jump\t// in\n    tag_44:\n        /* \"#utility.yul\":643:717   */\n      swap2\n      pop\n        /* \"#utility.yul\":726:819   */\n      tag_46\n        /* \"#utility.yul\":815:818   */\n      dup3\n        /* \"#utility.yul\":726:819   */\n      tag_47\n      jump\t// in\n    tag_46:\n        /* \"#utility.yul\":844:846   */\n      0x20\n        /* \"#utility.yul\":839:842   */\n      dup3\n        /* \"#utility.yul\":835:847   */\n      add\n        /* \"#utility.yul\":828:847   */\n      swap1\n      pop\n        /* \"#utility.yul\":487:853   */\n      swap2\n      swap1\n      pop\n      jump\t// out\n        /* \"#utility.yul\":859:1225   */\n    tag_48:\n        /* \"#utility.yul\":1001:1004   */\n      0x00\n        /* \"#utility.yul\":1022:1089   */\n      tag_50\n        /* \"#utility.yul\":1086:1088   */\n      0x1d\n        /* \"#utility.yul\":1081:1084   */\n      dup4\n        /* \"#utility.yul\":1022:1089   */\n      tag_45\n      jump\t// in\n    tag_50:\n        /* \"#utility.yul\":1015:1089   */\n      swap2\n      pop\n        /* \"#utility.yul\":1098:1191   */\n      tag_51\n        /* \"#utility.yul\":1187:1190   */\n      dup3\n        /* \"#utility.yul\":1098:1191   */\n      tag_52\n      jump\t// in\n    tag_51:\n        /* \"#utility.yul\":1216:1218   */\n      0x20\n        /* \"#utility.yul\":1211:1214   */\n      dup3\n        /* \"#utility.yul\":1207:1219   */\n      add\n        /* \"#utility.yul\":1200:1219   */\n      swap1\n      pop\n        /* \"#utility.yul\":859:1225   */\n      swap2\n      swap1\n      pop\n      jump\t// out\n        /* \"#utility.yul\":1231:1349   */\n    tag_53:\n        /* \"#utility.yul\":1318:1342   */\n      tag_55\n        /* \"#utility.yul\":1336:1341   */\n      dup2\n        /* \"#utility.yul\":1318:1342   */\n      tag_56\n      jump\t// in\n    tag_55:\n        /* \"#utility.yul\":1313:1316   */\n      dup3\n        /* \"#utility.yul\":1306:1343   */\n      mstore\n        /* \"#utility.yul\":1231:1349   */\n      pop\n      pop\n      jump\t// out\n        /* \"#utility.yul\":1355:1774   */\n    tag_23:\n        /* \"#utility.yul\":1521:1525   */\n      0x00\n        /* \"#utility.yul\":1559:1561   */\n      0x20\n        /* \"#utility.yul\":1548:1557   */\n      dup3\n        /* \"#utility.yul\":1544:1562   */\n      add\n        /* \"#utility.yul\":1536:1562   */\n      swap1\n      pop\n        /* \"#utility.yul\":1608:1617   */\n      dup2\n        /* \"#utility.yul\":1602:1606   */\n      dup2\n        /* \"#utility.yul\":1598:1618   */\n      sub\n        /* \"#utility.yul\":1594:1595   */\n      0x00\n        /* \"#utility.yul\":1583:1592   */\n      dup4\n        /* \"#utility.yul\":1579:1596   */\n      add\n        /* \"#utility.yul\":1572:1619   */\n      mstore\n        /* \"#utility.yul\":1636:1767   */\n      tag_58\n        /* \"#utility.yul\":1762:1766   */\n      dup2\n        /* \"#utility.yul\":1636:1767   */\n      tag_42\n      jump\t// in\n    tag_58:\n        /* \"#utility.yul\":1628:1767   */\n      swap1\n      pop\n        /* \"#utility.yul\":1355:1774   */\n      swap2\n      swap1\n      pop\n      jump\t// out\n        /* \"#utility.yul\":1780:2199   */\n    tag_31:\n        /* \"#utility.yul\":1946:1950   */\n      0x00\n        /* \"#utility.yul\":1984:1986   */\n      0x20\n        /* \"#utility.yul\":1973:1982   */\n      dup3\n        /* \"#utility.yul\":1969:1987   */\n      add\n        /* \"#utility.yul\":1961:1987   */\n      swap1\n      pop\n        /* \"#utility.yul\":2033:2042   */\n      dup2\n        /* \"#utility.yul\":2027:2031   */\n      dup2\n        /* \"#utility.yul\":2023:2043   */\n      sub\n        /* \"#utility.yul\":2019:2020   */\n      0x00\n        /* \"#utility.yul\":2008:2017   */\n      dup4\n        /* \"#utility.yul\":2004:2021   */\n      add\n        /* \"#utility.yul\":1997:2044   */\n      mstore\n        /* \"#utility.yul\":2061:2192   */\n      tag_60\n        /* \"#utility.yul\":2187:2191   */\n      dup2\n        /* \"#utility.yul\":2061:2192   */\n      tag_48\n      jump\t// in\n    tag_60:\n        /* \"#utility.yul\":2053:2192   */\n      swap1\n      pop\n        /* \"#utility.yul\":1780:2199   */\n      swap2\n      swap1\n      pop\n      jump\t// out\n        /* \"#utility.yul\":2205:2427   */\n    tag_16:\n        /* \"#utility.yul\":2298:2302   */\n      0x00\n        /* \"#utility.yul\":2336:2338   */\n      0x20\n        /* \"#utility.yul\":2325:2334   */\n      dup3\n        /* \"#utility.yul\":2321:2339   */\n      add\n        /* \"#utility.yul\":2313:2339   */\n      swap1\n      pop\n        /* \"#utility.yul\":2349:2420   */\n      tag_62\n        /* \"#utility.yul\":2417:2418   */\n      0x00\n        /* \"#utility.yul\":2406:2415   */\n      dup4\n        /* \"#utility.yul\":2402:2419   */\n      add\n        /* \"#utility.yul\":2393:2399   */\n      dup5\n        /* \"#utility.yul\":2349:2420   */\n      tag_53\n      jump\t// in\n    tag_62:\n        /* \"#utility.yul\":2205:2427   */\n      swap3\n      swap2\n      pop\n      pop\n      jump\t// out\n        /* \"#utility.yul\":2514:2683   */\n    tag_45:\n        /* \"#utility.yul\":2598:2609   */\n      0x00\n        /* \"#utility.yul\":2632:2638   */\n      dup3\n        /* \"#utility.yul\":2627:2630   */\n      dup3\n        /* \"#utility.yul\":2620:2639   */\n      mstore\n        /* \"#utility.yul\":2672:2676   */\n      0x20\n        /* \"#utility.yul\":2667:2670   */\n      dup3\n        /* \"#utility.yul\":2663:2677   */\n      add\n        /* \"#utility.yul\":2648:2677   */\n      swap1\n      pop\n        /* \"#utility.yul\":2514:2683   */\n      swap3\n      swap2\n      pop\n      pop\n      jump\t// out\n        /* \"#utility.yul\":2689:2766   */\n    tag_56:\n        /* \"#utility.yul\":2726:2733   */\n      0x00\n        /* \"#utility.yul\":2755:2760   */\n      dup2\n        /* \"#utility.yul\":2744:2760   */\n      swap1\n      pop\n        /* \"#utility.yul\":2689:2766   */\n      swap2\n      swap1\n      pop\n      jump\t// out\n        /* \"#utility.yul\":2772:2952   */\n    tag_27:\n        /* \"#utility.yul\":2820:2897   */\n      0x4e487b7100000000000000000000000000000000000000000000000000000000\n        /* \"#utility.yul\":2817:2818   */\n      0x00\n        /* \"#utility.yul\":2810:2898   */\n      mstore\n        /* \"#utility.yul\":2917:2921   */\n      0x01\n        /* \"#utility.yul\":2914:2915   */\n      0x04\n        /* \"#utility.yul\":2907:2922   */\n      mstore\n        /* \"#utility.yul\":2941:2945   */\n      0x24\n        /* \"#utility.yul\":2938:2939   */\n      0x00\n        /* \"#utility.yul\":2931:2946   */\n      revert\n        /* \"#utility.yul\":3081:3198   */\n    tag_40:\n        /* \"#utility.yul\":3190:3191   */\n      0x00\n        /* \"#utility.yul\":3187:3188   */\n      dup1\n        /* \"#utility.yul\":3180:3192   */\n      revert\n        /* \"#utility.yul\":3204:3384   */\n    tag_47:\n        /* \"#utility.yul\":3344:3376   */\n      0x496e707574206d7573742062652067726561746572207468616e203130200000\n        /* \"#utility.yul\":3340:3341   */\n      0x00\n        /* \"#utility.yul\":3332:3338   */\n      dup3\n        /* \"#utility.yul\":3328:3342   */\n      add\n        /* \"#utility.yul\":3321:3377   */\n      mstore\n        /* \"#utility.yul\":3204:3384   */\n      pop\n      jump\t// out\n        /* \"#utility.yul\":3390:3569   */\n    tag_52:\n        /* \"#utility.yul\":3530:3561   */\n      0x496e707574206d7573742062652067726561746572207468616e203130000000\n        /* \"#utility.yul\":3526:3527   */\n      0x00\n        /* \"#utility.yul\":3518:3524   */\n      dup3\n        /* \"#utility.yul\":3514:3528   */\n      add\n        /* \"#utility.yul\":3507:3562   */\n      mstore\n        /* \"#utility.yul\":3390:3569   */\n      pop\n      jump\t// out\n        /* \"#utility.yul\":3575:3697   */\n    tag_36:\n        /* \"#utility.yul\":3648:3672   */\n      tag_74\n        /* \"#utility.yul\":3666:3671   */\n      dup2\n        /* \"#utility.yul\":3648:3672   */\n      tag_56\n      jump\t// in\n    tag_74:\n        /* \"#utility.yul\":3641:3646   */\n      dup2\n        /* \"#utility.yul\":3638:3673   */\n      eq\n        /* \"#utility.yul\":3628:3691   */\n      tag_75\n      jumpi\n        /* \"#utility.yul\":3687:3688   */\n      0x00\n        /* \"#utility.yul\":3684:3685   */\n      dup1\n        /* \"#utility.yul\":3677:3689   */\n      revert\n        /* \"#utility.yul\":3628:3691   */\n    tag_75:\n        /* \"#utility.yul\":3575:3697   */\n      pop\n      jump\t// out\n\n    auxdata: 0xa264697066735822122037ba14b00d3878935cd45e46fc12680f22e2064c20fbb277246b7742a3081e0f64736f6c63430008070033\n}\n",
				"bytecode": {
					"linkReferences": {},
					"object": "608060405234801561001057600080fd5b50610337806100206000396000f3fe608060405234801561001057600080fd5b506004361061004c5760003560e01c806320987767146100515780632b813bc01461006d5780634e70b1dc14610077578063b8bd717f14610095575b600080fd5b61006b6004803603810190610066919061016c565b6100b1565b005b6100756100f7565b005b61007f61010b565b60405161008c919061022e565b60405180910390f35b6100af60048036038101906100aa919061016c565b610111565b005b600a81116100f4576040517f08c379a00000000000000000000000000000000000000000000000000000000081526004016100eb906101ee565b60405180910390fd5b50565b600080541461010957610108610264565b5b565b60005481565b600a8111610154576040517f08c379a000000000000000000000000000000000000000000000000000000000815260040161014b9061020e565b60405180910390fd5b50565b600081359050610166816102ea565b92915050565b60006020828403121561018257610181610293565b5b600061019084828501610157565b91505092915050565b60006101a6601e83610249565b91506101b182610298565b602082019050919050565b60006101c9601d83610249565b91506101d4826102c1565b602082019050919050565b6101e88161025a565b82525050565b6000602082019050818103600083015261020781610199565b9050919050565b60006020820190508181036000830152610227816101bc565b9050919050565b600060208201905061024360008301846101df565b92915050565b600082825260208201905092915050565b6000819050919050565b7f4e487b7100000000000000000000000000000000000000000000000000000000600052600160045260246000fd5b600080fd5b7f496e707574206d7573742062652067726561746572207468616e203130200000600082015250565b7f496e707574206d7573742062652067726561746572207468616e203130000000600082015250565b6102f38161025a565b81146102fe57600080fd5b5056fea264697066735822122037ba14b00d3878935cd45e46fc12680f22e2064c20fbb277246b7742a3081e0f64736f6c63430008070033",
					"opcodes": "PUSH1 0x80 PUSH1 0x40 MSTORE CALLVALUE DUP1 ISZERO PUSH2 0x10 JUMPI PUSH1 0x0 DUP1 REVERT JUMPDEST POP PUSH2 0x337 DUP1 PUSH2 0x20 PUSH1 0x0 CODECOPY PUSH1 0x0 RETURN INVALID PUSH1 0x80 PUSH1 0x40 MSTORE CALLVALUE DUP1 ISZERO PUSH2 0x10 JUMPI PUSH1 0x0 DUP1 REVERT JUMPDEST POP PUSH1 0x4 CALLDATASIZE LT PUSH2 0x4C JUMPI PUSH1 0x0 CALLDATALOAD PUSH1 0xE0 SHR DUP1 PUSH4 0x20987767 EQ PUSH2 0x51 JUMPI DUP1 PUSH4 0x2B813BC0 EQ PUSH2 0x6D JUMPI DUP1 PUSH4 0x4E70B1DC EQ PUSH2 0x77 JUMPI DUP1 PUSH4 0xB8BD717F EQ PUSH2 0x95 JUMPI JUMPDEST PUSH1 0x0 DUP1 REVERT JUMPDEST PUSH2 0x6B PUSH1 0x4 DUP1 CALLDATASIZE SUB DUP2 ADD SWAP1 PUSH2 0x66 SWAP2 SWAP1 PUSH2 0x16C JUMP JUMPDEST PUSH2 0xB1 JUMP JUMPDEST STOP JUMPDEST PUSH2 0x75 PUSH2 0xF7 JUMP JUMPDEST STOP JUMPDEST PUSH2 0x7F PUSH2 0x10B JUMP JUMPDEST PUSH1 0x40 MLOAD PUSH2 0x8C SWAP2 SWAP1 PUSH2 0x22E JUMP JUMPDEST PUSH1 0x40 MLOAD DUP1 SWAP2 SUB SWAP1 RETURN JUMPDEST PUSH2 0xAF PUSH1 0x4 DUP1 CALLDATASIZE SUB DUP2 ADD SWAP1 PUSH2 0xAA SWAP2 SWAP1 PUSH2 0x16C JUMP JUMPDEST PUSH2 0x111 JUMP JUMPDEST STOP JUMPDEST PUSH1 0xA DUP2 GT PUSH2 0xF4 JUMPI PUSH1 0x40 MLOAD PUSH32 0x8C379A000000000000000000000000000000000000000000000000000000000 DUP2 MSTORE PUSH1 0x4 ADD PUSH2 0xEB SWAP1 PUSH2 0x1EE JUMP JUMPDEST PUSH1 0x40 MLOAD DUP1 SWAP2 SUB SWAP1 REVERT JUMPDEST POP JUMP JUMPDEST PUSH1 0x0 DUP1 SLOAD EQ PUSH2 0x109 JUMPI PUSH2 0x108 PUSH2 0x264 JUMP JUMPDEST JUMPDEST JUMP JUMPDEST PUSH1 0x0 SLOAD DUP2 JUMP JUMPDEST PUSH1 0xA DUP2 GT PUSH2 0x154 JUMPI PUSH1 0x40 MLOAD PUSH32 0x8C379A000000000000000000000000000000000000000000000000000000000 DUP2 MSTORE PUSH1 0x4 ADD PUSH2 0x14B SWAP1 PUSH2 0x20E JUMP JUMPDEST PUSH1 0x40 MLOAD DUP1 SWAP2 SUB SWAP1 REVERT JUMPDEST POP JUMP JUMPDEST PUSH1 0x0 DUP2 CALLDATALOAD SWAP1 POP PUSH2 0x166 DUP2 PUSH2 0x2EA JUMP JUMPDEST SWAP3 SWAP2 POP POP JUMP JUMPDEST PUSH1 0x0 PUSH1 0x20 DUP3 DUP5 SUB SLT ISZERO PUSH2 0x182 JUMPI PUSH2 0x181 PUSH2 0x293 JUMP JUMPDEST JUMPDEST PUSH1 0x0 PUSH2 0x190 DUP5 DUP3 DUP6 ADD PUSH2 0x157 JUMP JUMPDEST SWAP2 POP POP SWAP3 SWAP2 POP POP JUMP JUMPDEST PUSH1 0x0 PUSH2 0x1A6 PUSH1 0x1E DUP4 PUSH2 0x249 JUMP JUMPDEST SWAP2 POP PUSH2 0x1B1 DUP3 PUSH2 0x298 JUMP JUMPDEST PUSH1 0x20 DUP3 ADD SWAP1 POP SWAP2 SWAP1 POP JUMP JUMPDEST PUSH1 0x0 PUSH2 0x1C9 PUSH1 0x1D DUP4 PUSH2 0x249 JUMP JUMPDEST SWAP2 POP PUSH2 0x1D4 DUP3 PUSH2 0x2C1 JUMP JUMPDEST PUSH1 0x20 DUP3 ADD SWAP1 POP SWAP2 SWAP1 POP JUMP JUMPDEST PUSH2 0x1E8 DUP2 PUSH2 0x25A JUMP JUMPDEST DUP3 MSTORE POP POP JUMP JUMPDEST PUSH1 0x0 PUSH1 0x20 DUP3 ADD SWAP1 POP DUP2 DUP2 SUB PUSH1 0x0 DUP4 ADD MSTORE PUSH2 0x207 DUP2 PUSH2 0x199 JUMP JUMPDEST SWAP1 POP SWAP2 SWAP1 POP JUMP JUMPDEST PUSH1 0x0 PUSH1 0x20 DUP3 ADD SWAP1 POP DUP2 DUP2 SUB PUSH1 0x0 DUP4 ADD MSTORE PUSH2 0x227 DUP2 PUSH2 0x1BC JUMP JUMPDEST SWAP1 POP SWAP2 SWAP1 POP JUMP JUMPDEST PUSH1 0x0 PUSH1 0x20 DUP3 ADD SWAP1 POP PUSH2 0x243 PUSH1 0x0 DUP4 ADD DUP5 PUSH2 0x1DF JUMP JUMPDEST SWAP3 SWAP2 POP POP JUMP JUMPDEST PUSH1 0x0 DUP3 DUP3 MSTORE PUSH1 0x20 DUP3 ADD SWAP1 POP SWAP3 SWAP2 POP POP JUMP JUMPDEST PUSH1 0x0 DUP2 SWAP1 POP SWAP2 SWAP1 POP JUMP JUMPDEST PUSH32 0x4E487B7100000000000000000000000000000000000000000000000000000000 PUSH1 0x0 MSTORE PUSH1 0x1 PUSH1 0x4 MSTORE PUSH1 0x24 PUSH1 0x0 REVERT JUMPDEST PUSH1 0x0 DUP1 REVERT JUMPDEST PUSH32 0x496E707574206D7573742062652067726561746572207468616E203130200000 PUSH1 0x0 DUP3 ADD MSTORE POP JUMP JUMPDEST PUSH32 0x496E707574206D7573742062652067726561746572207468616E203130000000 PUSH1 0x0 DUP3 ADD MSTORE POP JUMP JUMPDEST PUSH2 0x2F3 DUP2 PUSH2 0x25A JUMP JUMPDEST DUP2 EQ PUSH2 0x2FE JUMPI PUSH1 0x0 DUP1 REVERT JUMPDEST POP JUMP INVALID LOG2 PUSH5 0x6970667358 0x22 SLT KECCAK256 CALLDATACOPY 0xBA EQ 0xB0 0xD CODESIZE PUSH25 0x935CD45E46FC12680F22E2064C20FBB277246B7742A3081E0F PUSH5 0x736F6C6343 STOP ADDMOD SMOD STOP CALLER "
				},
				"gasEstimates": {
					"creation": {
						"codeDepositCost": "164600",
						"executionCost": "208",
						"totalCost": "164808"
					},
					"external": {
						"num()": "2451",
						"testAssert()": "2296",
						"testRequire(uint256)": "760",
						"testRevert(uint256)": "694"
					}
				},
				"methodIdentifiers": {
					"num()": "4e70b1dc",
					"testAssert()": "2b813bc0",
					"testRequire(uint256)": "b8bd717f",
					"testRevert(uint256)": "20987767"
				}
			},
			"storageLayout": {
				"storage": [
					{
						"astId": 31,
						"contract": "contracts/15_error.sol:ErrorHanding",
						"label": "num",
						"offset": 0,
						"slot": "0",
						"type": "t_uint256"
					}
				],
				"types": {
					"t_uint256": {
						"encoding": "inplace",
						"label": "uint256",
						"numberOfBytes": "32"
					}
				}
			},
			"userdoc": {
				"kind": "user",
				"methods": {},
				"version": 1
			}
		}
	}
}