{
	"contracts/6_gas.sol": {
		"gas_convert": {
			"abi": [
				{
					"inputs": [],
					"name": "get_value",
					"outputs": [
						{
							"internalType": "uint256",
							"name": "",
							"type": "uint256"
						},
						{
							"internalType": "uint256",
							"name": "",
							"type": "uint256"
						},
						{
							"internalType": "uint256",
							"name": "",
							"type": "uint256"
						}
					],
					"stateMutability": "view",
					"type": "function"
				},
				{
					"inputs": [
						{
							"internalType": "uint256",
							"name": "_num",
							"type": "uint256"
						}
					],
					"name": "set_value",
					"outputs": [],
					"stateMutability": "nonpayable",
					"type": "function"
				}
			],
			"devdoc": {
				"kind": "dev",
				"methods": {},
				"version": 1
			},
			"evm": {
				"assembly": "    /* \"contracts/6_gas.sol\":62:424  contract gas_convert{... */\n  mstore(0x40, 0x80)\n  callvalue\n  dup1\n  iszero\n  tag_1\n  jumpi\n  0x00\n  dup1\n  revert\ntag_1:\n  pop\n  dataSize(sub_0)\n  dup1\n  dataOffset(sub_0)\n  0x00\n  codecopy\n  0x00\n  return\nstop\n\nsub_0: assembly {\n        /* \"contracts/6_gas.sol\":62:424  contract gas_convert{... */\n      mstore(0x40, 0x80)\n      callvalue\n      dup1\n      iszero\n      tag_1\n      jumpi\n      0x00\n      dup1\n      revert\n    tag_1:\n      pop\n      jumpi(tag_2, lt(calldatasize, 0x04))\n      shr(0xe0, calldataload(0x00))\n      dup1\n      0x33cf5080\n      eq\n      tag_3\n      jumpi\n      dup1\n      0xb0f2b72a\n      eq\n      tag_4\n      jumpi\n    tag_2:\n      0x00\n      dup1\n      revert\n        /* \"contracts/6_gas.sol\":160:269  function get_value() public view returns(uint,uint,uint) {... */\n    tag_3:\n      tag_5\n      tag_6\n      jump\t// in\n    tag_5:\n      mload(0x40)\n      tag_7\n      swap4\n      swap3\n      swap2\n      swap1\n      tag_8\n      jump\t// in\n    tag_7:\n      mload(0x40)\n      dup1\n      swap2\n      sub\n      swap1\n      return\n        /* \"contracts/6_gas.sol\":274:422  function set_value(uint _num) public{... */\n    tag_4:\n      tag_9\n      0x04\n      dup1\n      calldatasize\n      sub\n      dup2\n      add\n      swap1\n      tag_10\n      swap2\n      swap1\n      tag_11\n      jump\t// in\n    tag_10:\n      tag_12\n      jump\t// in\n    tag_9:\n      stop\n        /* \"contracts/6_gas.sol\":160:269  function get_value() public view returns(uint,uint,uint) {... */\n    tag_6:\n        /* \"contracts/6_gas.sol\":201:205  uint */\n      0x00\n        /* \"contracts/6_gas.sol\":206:210  uint */\n      dup1\n        /* \"contracts/6_gas.sol\":211:215  uint */\n      0x00\n        /* \"contracts/6_gas.sol\":235:244  ether_val */\n      sload(0x01)\n        /* \"contracts/6_gas.sol\":245:252  wei_val */\n      sload(0x02)\n        /* \"contracts/6_gas.sol\":253:261  gwei_val */\n      sload(0x03)\n        /* \"contracts/6_gas.sol\":227:262  return (ether_val,wei_val,gwei_val) */\n      swap3\n      pop\n      swap3\n      pop\n      swap3\n      pop\n        /* \"contracts/6_gas.sol\":160:269  function get_value() public view returns(uint,uint,uint) {... */\n      swap1\n      swap2\n      swap3\n      jump\t// out\n        /* \"contracts/6_gas.sol\":274:422  function set_value(uint _num) public{... */\n    tag_12:\n        /* \"contracts/6_gas.sol\":326:330  _num */\n      dup1\n        /* \"contracts/6_gas.sol\":320:323  num */\n      0x00\n        /* \"contracts/6_gas.sol\":320:330  num = _num */\n      dup2\n      swap1\n      sstore\n      pop\n        /* \"contracts/6_gas.sol\":352:355  num */\n      sload(0x00)\n        /* \"contracts/6_gas.sol\":340:349  ether_val */\n      0x01\n        /* \"contracts/6_gas.sol\":340:355  ether_val = num */\n      dup2\n      swap1\n      sstore\n      pop\n        /* \"contracts/6_gas.sol\":381:385  1e18 */\n      0x0de0b6b3a7640000\n        /* \"contracts/6_gas.sol\":375:378  num */\n      sload(0x00)\n        /* \"contracts/6_gas.sol\":375:385  num * 1e18 */\n      tag_15\n      swap2\n      swap1\n      tag_16\n      jump\t// in\n    tag_15:\n        /* \"contracts/6_gas.sol\":365:372  wei_val */\n      0x02\n        /* \"contracts/6_gas.sol\":365:385  wei_val = num * 1e18 */\n      dup2\n      swap1\n      sstore\n      pop\n        /* \"contracts/6_gas.sol\":412:415  1e9 */\n      0x3b9aca00\n        /* \"contracts/6_gas.sol\":406:409  num */\n      sload(0x00)\n        /* \"contracts/6_gas.sol\":406:415  num * 1e9 */\n      tag_17\n      swap2\n      swap1\n      tag_16\n      jump\t// in\n    tag_17:\n        /* \"contracts/6_gas.sol\":395:403  gwei_val */\n      0x03\n        /* \"contracts/6_gas.sol\":395:415  gwei_val = num * 1e9 */\n      dup2\n      swap1\n      sstore\n      pop\n        /* \"contracts/6_gas.sol\":274:422  function set_value(uint _num) public{... */\n      pop\n      jump\t// out\n        /* \"#utility.yul\":7:84   */\n    tag_18:\n        /* \"#utility.yul\":44:51   */\n      0x00\n        /* \"#utility.yul\":73:78   */\n      dup2\n        /* \"#utility.yul\":62:78   */\n      swap1\n      pop\n        /* \"#utility.yul\":7:84   */\n      swap2\n      swap1\n      pop\n      jump\t// out\n        /* \"#utility.yul\":90:208   */\n    tag_19:\n        /* \"#utility.yul\":177:201   */\n      tag_29\n        /* \"#utility.yul\":195:200   */\n      dup2\n        /* \"#utility.yul\":177:201   */\n      tag_18\n      jump\t// in\n    tag_29:\n        /* \"#utility.yul\":172:175   */\n      dup3\n        /* \"#utility.yul\":165:202   */\n      mstore\n        /* \"#utility.yul\":90:208   */\n      pop\n      pop\n      jump\t// out\n        /* \"#utility.yul\":214:656   */\n    tag_8:\n        /* \"#utility.yul\":363:367   */\n      0x00\n        /* \"#utility.yul\":401:403   */\n      0x60\n        /* \"#utility.yul\":390:399   */\n      dup3\n        /* \"#utility.yul\":386:404   */\n      add\n        /* \"#utility.yul\":378:404   */\n      swap1\n      pop\n        /* \"#utility.yul\":414:485   */\n      tag_31\n        /* \"#utility.yul\":482:483   */\n      0x00\n        /* \"#utility.yul\":471:480   */\n      dup4\n        /* \"#utility.yul\":467:484   */\n      add\n        /* \"#utility.yul\":458:464   */\n      dup7\n        /* \"#utility.yul\":414:485   */\n      tag_19\n      jump\t// in\n    tag_31:\n        /* \"#utility.yul\":495:567   */\n      tag_32\n        /* \"#utility.yul\":563:565   */\n      0x20\n        /* \"#utility.yul\":552:561   */\n      dup4\n        /* \"#utility.yul\":548:566   */\n      add\n        /* \"#utility.yul\":539:545   */\n      dup6\n        /* \"#utility.yul\":495:567   */\n      tag_19\n      jump\t// in\n    tag_32:\n        /* \"#utility.yul\":577:649   */\n      tag_33\n        /* \"#utility.yul\":645:647   */\n      0x40\n        /* \"#utility.yul\":634:643   */\n      dup4\n        /* \"#utility.yul\":630:648   */\n      add\n        /* \"#utility.yul\":621:627   */\n      dup5\n        /* \"#utility.yul\":577:649   */\n      tag_19\n      jump\t// in\n    tag_33:\n        /* \"#utility.yul\":214:656   */\n      swap5\n      swap4\n      pop\n      pop\n      pop\n      pop\n      jump\t// out\n        /* \"#utility.yul\":743:860   */\n    tag_21:\n        /* \"#utility.yul\":852:853   */\n      0x00\n        /* \"#utility.yul\":849:850   */\n      dup1\n        /* \"#utility.yul\":842:854   */\n      revert\n        /* \"#utility.yul\":989:1111   */\n    tag_23:\n        /* \"#utility.yul\":1062:1086   */\n      tag_38\n        /* \"#utility.yul\":1080:1085   */\n      dup2\n        /* \"#utility.yul\":1062:1086   */\n      tag_18\n      jump\t// in\n    tag_38:\n        /* \"#utility.yul\":1055:1060   */\n      dup2\n        /* \"#utility.yul\":1052:1087   */\n      eq\n        /* \"#utility.yul\":1042:1105   */\n      tag_39\n      jumpi\n        /* \"#utility.yul\":1101:1102   */\n      0x00\n        /* \"#utility.yul\":1098:1099   */\n      dup1\n        /* \"#utility.yul\":1091:1103   */\n      revert\n        /* \"#utility.yul\":1042:1105   */\n    tag_39:\n        /* \"#utility.yul\":989:1111   */\n      pop\n      jump\t// out\n        /* \"#utility.yul\":1117:1256   */\n    tag_24:\n        /* \"#utility.yul\":1163:1168   */\n      0x00\n        /* \"#utility.yul\":1201:1207   */\n      dup2\n        /* \"#utility.yul\":1188:1208   */\n      calldataload\n        /* \"#utility.yul\":1179:1208   */\n      swap1\n      pop\n        /* \"#utility.yul\":1217:1250   */\n      tag_41\n        /* \"#utility.yul\":1244:1249   */\n      dup2\n        /* \"#utility.yul\":1217:1250   */\n      tag_23\n      jump\t// in\n    tag_41:\n        /* \"#utility.yul\":1117:1256   */\n      swap3\n      swap2\n      pop\n      pop\n      jump\t// out\n        /* \"#utility.yul\":1262:1591   */\n    tag_11:\n        /* \"#utility.yul\":1321:1327   */\n      0x00\n        /* \"#utility.yul\":1370:1372   */\n      0x20\n        /* \"#utility.yul\":1358:1367   */\n      dup3\n        /* \"#utility.yul\":1349:1356   */\n      dup5\n        /* \"#utility.yul\":1345:1368   */\n      sub\n        /* \"#utility.yul\":1341:1373   */\n      slt\n        /* \"#utility.yul\":1338:1457   */\n      iszero\n      tag_43\n      jumpi\n        /* \"#utility.yul\":1376:1455   */\n      tag_44\n      tag_21\n      jump\t// in\n    tag_44:\n        /* \"#utility.yul\":1338:1457   */\n    tag_43:\n        /* \"#utility.yul\":1496:1497   */\n      0x00\n        /* \"#utility.yul\":1521:1574   */\n      tag_45\n        /* \"#utility.yul\":1566:1573   */\n      dup5\n        /* \"#utility.yul\":1557:1563   */\n      dup3\n        /* \"#utility.yul\":1546:1555   */\n      dup6\n        /* \"#utility.yul\":1542:1564   */\n      add\n        /* \"#utility.yul\":1521:1574   */\n      tag_24\n      jump\t// in\n    tag_45:\n        /* \"#utility.yul\":1511:1574   */\n      swap2\n      pop\n        /* \"#utility.yul\":1467:1584   */\n      pop\n        /* \"#utility.yul\":1262:1591   */\n      swap3\n      swap2\n      pop\n      pop\n      jump\t// out\n        /* \"#utility.yul\":1597:1777   */\n    tag_25:\n        /* \"#utility.yul\":1645:1722   */\n      0x4e487b7100000000000000000000000000000000000000000000000000000000\n        /* \"#utility.yul\":1642:1643   */\n      0x00\n        /* \"#utility.yul\":1635:1723   */\n      mstore\n        /* \"#utility.yul\":1742:1746   */\n      0x11\n        /* \"#utility.yul\":1739:1740   */\n      0x04\n        /* \"#utility.yul\":1732:1747   */\n      mstore\n        /* \"#utility.yul\":1766:1770   */\n      0x24\n        /* \"#utility.yul\":1763:1764   */\n      0x00\n        /* \"#utility.yul\":1756:1771   */\n      revert\n        /* \"#utility.yul\":1783:2193   */\n    tag_16:\n        /* \"#utility.yul\":1823:1830   */\n      0x00\n        /* \"#utility.yul\":1846:1866   */\n      tag_48\n        /* \"#utility.yul\":1864:1865   */\n      dup3\n        /* \"#utility.yul\":1846:1866   */\n      tag_18\n      jump\t// in\n    tag_48:\n        /* \"#utility.yul\":1841:1866   */\n      swap2\n      pop\n        /* \"#utility.yul\":1880:1900   */\n      tag_49\n        /* \"#utility.yul\":1898:1899   */\n      dup4\n        /* \"#utility.yul\":1880:1900   */\n      tag_18\n      jump\t// in\n    tag_49:\n        /* \"#utility.yul\":1875:1900   */\n      swap3\n      pop\n        /* \"#utility.yul\":1935:1936   */\n      dup3\n        /* \"#utility.yul\":1932:1933   */\n      dup3\n        /* \"#utility.yul\":1928:1937   */\n      mul\n        /* \"#utility.yul\":1957:1987   */\n      tag_50\n        /* \"#utility.yul\":1975:1986   */\n      dup2\n        /* \"#utility.yul\":1957:1987   */\n      tag_18\n      jump\t// in\n    tag_50:\n        /* \"#utility.yul\":1946:1987   */\n      swap2\n      pop\n        /* \"#utility.yul\":2136:2137   */\n      dup3\n        /* \"#utility.yul\":2127:2134   */\n      dup3\n        /* \"#utility.yul\":2123:2138   */\n      div\n        /* \"#utility.yul\":2120:2121   */\n      dup5\n        /* \"#utility.yul\":2117:2139   */\n      eq\n        /* \"#utility.yul\":2097:2098   */\n      dup4\n        /* \"#utility.yul\":2090:2099   */\n      iszero\n        /* \"#utility.yul\":2070:2153   */\n      or\n        /* \"#utility.yul\":2047:2186   */\n      tag_51\n      jumpi\n        /* \"#utility.yul\":2166:2184   */\n      tag_52\n      tag_25\n      jump\t// in\n    tag_52:\n        /* \"#utility.yul\":2047:2186   */\n    tag_51:\n        /* \"#utility.yul\":1831:2193   */\n      pop\n        /* \"#utility.yul\":1783:2193   */\n      swap3\n      swap2\n      pop\n      pop\n      jump\t// out\n\n    auxdata: 0xa26469706673582212207b224b5be1ed1f184ef4c84eafe271d9d564542839a6b478ec214874d70b9cfa64736f6c63430008110033\n}\n",
				"bytecode": {
					"linkReferences": {},
					"object": "608060405234801561001057600080fd5b5061022c806100206000396000f3fe608060405234801561001057600080fd5b50600436106100365760003560e01c806333cf50801461003b578063b0f2b72a1461005b575b600080fd5b610043610077565b604051610052939291906100f0565b60405180910390f35b61007560048036038101906100709190610158565b610090565b005b6000806000600154600254600354925092509250909192565b80600081905550600054600181905550670de0b6b3a76400006000546100b691906101b4565b600281905550633b9aca006000546100ce91906101b4565b60038190555050565b6000819050919050565b6100ea816100d7565b82525050565b600060608201905061010560008301866100e1565b61011260208301856100e1565b61011f60408301846100e1565b949350505050565b600080fd5b610135816100d7565b811461014057600080fd5b50565b6000813590506101528161012c565b92915050565b60006020828403121561016e5761016d610127565b5b600061017c84828501610143565b91505092915050565b7f4e487b7100000000000000000000000000000000000000000000000000000000600052601160045260246000fd5b60006101bf826100d7565b91506101ca836100d7565b92508282026101d8816100d7565b915082820484148315176101ef576101ee610185565b5b509291505056fea26469706673582212207b224b5be1ed1f184ef4c84eafe271d9d564542839a6b478ec214874d70b9cfa64736f6c63430008110033",
					"opcodes": "PUSH1 0x80 PUSH1 0x40 MSTORE CALLVALUE DUP1 ISZERO PUSH2 0x10 JUMPI PUSH1 0x0 DUP1 REVERT JUMPDEST POP PUSH2 0x22C DUP1 PUSH2 0x20 PUSH1 0x0 CODECOPY PUSH1 0x0 RETURN INVALID PUSH1 0x80 PUSH1 0x40 MSTORE CALLVALUE DUP1 ISZERO PUSH2 0x10 JUMPI PUSH1 0x0 DUP1 REVERT JUMPDEST POP PUSH1 0x4 CALLDATASIZE LT PUSH2 0x36 JUMPI PUSH1 0x0 CALLDATALOAD PUSH1 0xE0 SHR DUP1 PUSH4 0x33CF5080 EQ PUSH2 0x3B JUMPI DUP1 PUSH4 0xB0F2B72A EQ PUSH2 0x5B JUMPI JUMPDEST PUSH1 0x0 DUP1 REVERT JUMPDEST PUSH2 0x43 PUSH2 0x77 JUMP JUMPDEST PUSH1 0x40 MLOAD PUSH2 0x52 SWAP4 SWAP3 SWAP2 SWAP1 PUSH2 0xF0 JUMP JUMPDEST PUSH1 0x40 MLOAD DUP1 SWAP2 SUB SWAP1 RETURN JUMPDEST PUSH2 0x75 PUSH1 0x4 DUP1 CALLDATASIZE SUB DUP2 ADD SWAP1 PUSH2 0x70 SWAP2 SWAP1 PUSH2 0x158 JUMP JUMPDEST PUSH2 0x90 JUMP JUMPDEST STOP JUMPDEST PUSH1 0x0 DUP1 PUSH1 0x0 PUSH1 0x1 SLOAD PUSH1 0x2 SLOAD PUSH1 0x3 SLOAD SWAP3 POP SWAP3 POP SWAP3 POP SWAP1 SWAP2 SWAP3 JUMP JUMPDEST DUP1 PUSH1 0x0 DUP2 SWAP1 SSTORE POP PUSH1 0x0 SLOAD PUSH1 0x1 DUP2 SWAP1 SSTORE POP PUSH8 0xDE0B6B3A7640000 PUSH1 0x0 SLOAD PUSH2 0xB6 SWAP2 SWAP1 PUSH2 0x1B4 JUMP JUMPDEST PUSH1 0x2 DUP2 SWAP1 SSTORE POP PUSH4 0x3B9ACA00 PUSH1 0x0 SLOAD PUSH2 0xCE SWAP2 SWAP1 PUSH2 0x1B4 JUMP JUMPDEST PUSH1 0x3 DUP2 SWAP1 SSTORE POP POP JUMP JUMPDEST PUSH1 0x0 DUP2 SWAP1 POP SWAP2 SWAP1 POP JUMP JUMPDEST PUSH2 0xEA DUP2 PUSH2 0xD7 JUMP JUMPDEST DUP3 MSTORE POP POP JUMP JUMPDEST PUSH1 0x0 PUSH1 0x60 DUP3 ADD SWAP1 POP PUSH2 0x105 PUSH1 0x0 DUP4 ADD DUP7 PUSH2 0xE1 JUMP JUMPDEST PUSH2 0x112 PUSH1 0x20 DUP4 ADD DUP6 PUSH2 0xE1 JUMP JUMPDEST PUSH2 0x11F PUSH1 0x40 DUP4 ADD DUP5 PUSH2 0xE1 JUMP JUMPDEST SWAP5 SWAP4 POP POP POP POP JUMP JUMPDEST PUSH1 0x0 DUP1 REVERT JUMPDEST PUSH2 0x135 DUP2 PUSH2 0xD7 JUMP JUMPDEST DUP2 EQ PUSH2 0x140 JUMPI PUSH1 0x0 DUP1 REVERT JUMPDEST POP JUMP JUMPDEST PUSH1 0x0 DUP2 CALLDATALOAD SWAP1 POP PUSH2 0x152 DUP2 PUSH2 0x12C JUMP JUMPDEST SWAP3 SWAP2 POP POP JUMP JUMPDEST PUSH1 0x0 PUSH1 0x20 DUP3 DUP5 SUB SLT ISZERO PUSH2 0x16E JUMPI PUSH2 0x16D PUSH2 0x127 JUMP JUMPDEST JUMPDEST PUSH1 0x0 PUSH2 0x17C DUP5 DUP3 DUP6 ADD PUSH2 0x143 JUMP JUMPDEST SWAP2 POP POP SWAP3 SWAP2 POP POP JUMP JUMPDEST PUSH32 0x4E487B7100000000000000000000000000000000000000000000000000000000 PUSH1 0x0 MSTORE PUSH1 0x11 PUSH1 0x4 MSTORE PUSH1 0x24 PUSH1 0x0 REVERT JUMPDEST PUSH1 0x0 PUSH2 0x1BF DUP3 PUSH2 0xD7 JUMP JUMPDEST SWAP2 POP PUSH2 0x1CA DUP4 PUSH2 0xD7 JUMP JUMPDEST SWAP3 POP DUP3 DUP3 MUL PUSH2 0x1D8 DUP2 PUSH2 0xD7 JUMP JUMPDEST SWAP2 POP DUP3 DUP3 DIV DUP5 EQ DUP4 ISZERO OR PUSH2 0x1EF JUMPI PUSH2 0x1EE PUSH2 0x185 JUMP JUMPDEST JUMPDEST POP SWAP3 SWAP2 POP POP JUMP INVALID LOG2 PUSH5 0x6970667358 0x22 SLT KECCAK256 PUSH28 0x224B5BE1ED1F184EF4C84EAFE271D9D564542839A6B478EC214874D7 SIGNEXTEND SWAP13 STATICCALL PUSH5 0x736F6C6343 STOP ADDMOD GT STOP CALLER "
				},
				"gasEstimates": {
					"creation": {
						"codeDepositCost": "111200",
						"executionCost": "159",
						"totalCost": "111359"
					},
					"external": {
						"get_value()": "infinite",
						"set_value(uint256)": "infinite"
					}
				},
				"methodIdentifiers": {
					"get_value()": "33cf5080",
					"set_value(uint256)": "b0f2b72a"
				}
			},
			"storageLayout": {
				"storage": [
					{
						"astId": 3,
						"contract": "contracts/6_gas.sol:gas_convert",
						"label": "num",
						"offset": 0,
						"slot": "0",
						"type": "t_uint256"
					},
					{
						"astId": 5,
						"contract": "contracts/6_gas.sol:gas_convert",
						"label": "ether_val",
						"offset": 0,
						"slot": "1",
						"type": "t_uint256"
					},
					{
						"astId": 7,
						"contract": "contracts/6_gas.sol:gas_convert",
						"label": "wei_val",
						"offset": 0,
						"slot": "2",
						"type": "t_uint256"
					},
					{
						"astId": 9,
						"contract": "contracts/6_gas.sol:gas_convert",
						"label": "gwei_val",
						"offset": 0,
						"slot": "3",
						"type": "t_uint256"
					}
				],
				"types": {
					"t_uint256": {
						"encoding": "inplace",
						"label": "uint256",
						"numberOfBytes": "32"
					}
				}
			},
			"userdoc": {
				"kind": "user",
				"methods": {},
				"version": 1
			}
		}
	}
}