{
	"data": {
		"bytecode": {
			"linkReferences": {},
			"object": "608060405234801561001057600080fd5b5061039c806100206000396000f3fe608060405234801561001057600080fd5b50600436106100365760003560e01c80636d4ce63c1461003b578063bef2b8181461005c575b600080fd5b610043610078565b6040516100539493929190610205565b60405180910390f35b610076600480360381019061007191906102ff565b6100d2565b005b600080600080600054600160009054906101000a900473ffffffffffffffffffffffffffffffffffffffff16600160149054906101000a900460ff16600160159054906101000a900460f81b935093509350935090919293565b8360008190555082600160006101000a81548173ffffffffffffffffffffffffffffffffffffffff021916908373ffffffffffffffffffffffffffffffffffffffff16021790555081600160146101000a81548160ff02191690831515021790555080600160156101000a81548160ff021916908360f81c021790555050505050565b6000819050919050565b61016881610155565b82525050565b600073ffffffffffffffffffffffffffffffffffffffff82169050919050565b60006101998261016e565b9050919050565b6101a98161018e565b82525050565b60008115159050919050565b6101c4816101af565b82525050565b60007fff0000000000000000000000000000000000000000000000000000000000000082169050919050565b6101ff816101ca565b82525050565b600060808201905061021a600083018761015f565b61022760208301866101a0565b61023460408301856101bb565b61024160608301846101f6565b95945050505050565b600080fd5b61025881610155565b811461026357600080fd5b50565b6000813590506102758161024f565b92915050565b6102848161018e565b811461028f57600080fd5b50565b6000813590506102a18161027b565b92915050565b6102b0816101af565b81146102bb57600080fd5b50565b6000813590506102cd816102a7565b92915050565b6102dc816101ca565b81146102e757600080fd5b50565b6000813590506102f9816102d3565b92915050565b600080600080608085870312156103195761031861024a565b5b600061032787828801610266565b945050602061033887828801610292565b9350506040610349878288016102be565b925050606061035a878288016102ea565b9150509295919450925056fea2646970667358221220ff53727315739b81322726140a3b4440c5cdfe45825b2cb018c59c930885341b64736f6c63430008110033",
			"opcodes": "PUSH1 0x80 PUSH1 0x40 MSTORE CALLVALUE DUP1 ISZERO PUSH2 0x10 JUMPI PUSH1 0x0 DUP1 REVERT JUMPDEST POP PUSH2 0x39C DUP1 PUSH2 0x20 PUSH1 0x0 CODECOPY PUSH1 0x0 RETURN INVALID PUSH1 0x80 PUSH1 0x40 MSTORE CALLVALUE DUP1 ISZERO PUSH2 0x10 JUMPI PUSH1 0x0 DUP1 REVERT JUMPDEST POP PUSH1 0x4 CALLDATASIZE LT PUSH2 0x36 JUMPI PUSH1 0x0 CALLDATALOAD PUSH1 0xE0 SHR DUP1 PUSH4 0x6D4CE63C EQ PUSH2 0x3B JUMPI DUP1 PUSH4 0xBEF2B818 EQ PUSH2 0x5C JUMPI JUMPDEST PUSH1 0x0 DUP1 REVERT JUMPDEST PUSH2 0x43 PUSH2 0x78 JUMP JUMPDEST PUSH1 0x40 MLOAD PUSH2 0x53 SWAP5 SWAP4 SWAP3 SWAP2 SWAP1 PUSH2 0x205 JUMP JUMPDEST PUSH1 0x40 MLOAD DUP1 SWAP2 SUB SWAP1 RETURN JUMPDEST PUSH2 0x76 PUSH1 0x4 DUP1 CALLDATASIZE SUB DUP2 ADD SWAP1 PUSH2 0x71 SWAP2 SWAP1 PUSH2 0x2FF JUMP JUMPDEST PUSH2 0xD2 JUMP JUMPDEST STOP JUMPDEST PUSH1 0x0 DUP1 PUSH1 0x0 DUP1 PUSH1 0x0 SLOAD PUSH1 0x1 PUSH1 0x0 SWAP1 SLOAD SWAP1 PUSH2 0x100 EXP SWAP1 DIV PUSH20 0xFFFFFFFFFFFFFFFFFFFFFFFFFFFFFFFFFFFFFFFF AND PUSH1 0x1 PUSH1 0x14 SWAP1 SLOAD SWAP1 PUSH2 0x100 EXP SWAP1 DIV PUSH1 0xFF AND PUSH1 0x1 PUSH1 0x15 SWAP1 SLOAD SWAP1 PUSH2 0x100 EXP SWAP1 DIV PUSH1 0xF8 SHL SWAP4 POP SWAP4 POP SWAP4 POP SWAP4 POP SWAP1 SWAP2 SWAP3 SWAP4 JUMP JUMPDEST DUP4 PUSH1 0x0 DUP2 SWAP1 SSTORE POP DUP3 PUSH1 0x1 PUSH1 0x0 PUSH2 0x100 EXP DUP2 SLOAD DUP2 PUSH20 0xFFFFFFFFFFFFFFFFFFFFFFFFFFFFFFFFFFFFFFFF MUL NOT AND SWAP1 DUP4 PUSH20 0xFFFFFFFFFFFFFFFFFFFFFFFFFFFFFFFFFFFFFFFF AND MUL OR SWAP1 SSTORE POP DUP2 PUSH1 0x1 PUSH1 0x14 PUSH2 0x100 EXP DUP2 SLOAD DUP2 PUSH1 0xFF MUL NOT AND SWAP1 DUP4 ISZERO ISZERO MUL OR SWAP1 SSTORE POP DUP1 PUSH1 0x1 PUSH1 0x15 PUSH2 0x100 EXP DUP2 SLOAD DUP2 PUSH1 0xFF MUL NOT AND SWAP1 DUP4 PUSH1 0xF8 SHR MUL OR SWAP1 SSTORE POP POP POP POP POP JUMP JUMPDEST PUSH1 0x0 DUP2 SWAP1 POP SWAP2 SWAP1 POP JUMP JUMPDEST PUSH2 0x168 DUP2 PUSH2 0x155 JUMP JUMPDEST DUP3 MSTORE POP POP JUMP JUMPDEST PUSH1 0x0 PUSH20 0xFFFFFFFFFFFFFFFFFFFFFFFFFFFFFFFFFFFFFFFF DUP3 AND SWAP1 POP SWAP2 SWAP1 POP JUMP JUMPDEST PUSH1 0x0 PUSH2 0x199 DUP3 PUSH2 0x16E JUMP JUMPDEST SWAP1 POP SWAP2 SWAP1 POP JUMP JUMPDEST PUSH2 0x1A9 DUP2 PUSH2 0x18E JUMP JUMPDEST DUP3 MSTORE POP POP JUMP JUMPDEST PUSH1 0x0 DUP2 ISZERO ISZERO SWAP1 POP SWAP2 SWAP1 POP JUMP JUMPDEST PUSH2 0x1C4 DUP2 PUSH2 0x1AF JUMP JUMPDEST DUP3 MSTORE POP POP JUMP JUMPDEST PUSH1 0x0 PUSH32 0xFF00000000000000000000000000000000000000000000000000000000000000 DUP3 AND SWAP1 POP SWAP2 SWAP1 POP JUMP JUMPDEST PUSH2 0x1FF DUP2 PUSH2 0x1CA JUMP JUMPDEST DUP3 MSTORE POP POP JUMP JUMPDEST PUSH1 0x0 PUSH1 0x80 DUP3 ADD SWAP1 POP PUSH2 0x21A PUSH1 0x0 DUP4 ADD DUP8 PUSH2 0x15F JUMP JUMPDEST PUSH2 0x227 PUSH1 0x20 DUP4 ADD DUP7 PUSH2 0x1A0 JUMP JUMPDEST PUSH2 0x234 PUSH1 0x40 DUP4 ADD DUP6 PUSH2 0x1BB JUMP JUMPDEST PUSH2 0x241 PUSH1 0x60 DUP4 ADD DUP5 PUSH2 0x1F6 JUMP JUMPDEST SWAP6 SWAP5 POP POP POP POP POP JUMP JUMPDEST PUSH1 0x0 DUP1 REVERT JUMPDEST PUSH2 0x258 DUP2 PUSH2 0x155 JUMP JUMPDEST DUP2 EQ PUSH2 0x263 JUMPI PUSH1 0x0 DUP1 REVERT JUMPDEST POP JUMP JUMPDEST PUSH1 0x0 DUP2 CALLDATALOAD SWAP1 POP PUSH2 0x275 DUP2 PUSH2 0x24F JUMP JUMPDEST SWAP3 SWAP2 POP POP JUMP JUMPDEST PUSH2 0x284 DUP2 PUSH2 0x18E JUMP JUMPDEST DUP2 EQ PUSH2 0x28F JUMPI PUSH1 0x0 DUP1 REVERT JUMPDEST POP JUMP JUMPDEST PUSH1 0x0 DUP2 CALLDATALOAD SWAP1 POP PUSH2 0x2A1 DUP2 PUSH2 0x27B JUMP JUMPDEST SWAP3 SWAP2 POP POP JUMP JUMPDEST PUSH2 0x2B0 DUP2 PUSH2 0x1AF JUMP JUMPDEST DUP2 EQ PUSH2 0x2BB JUMPI PUSH1 0x0 DUP1 REVERT JUMPDEST POP JUMP JUMPDEST PUSH1 0x0 DUP2 CALLDATALOAD SWAP1 POP PUSH2 0x2CD DUP2 PUSH2 0x2A7 JUMP JUMPDEST SWAP3 SWAP2 POP POP JUMP JUMPDEST PUSH2 0x2DC DUP2 PUSH2 0x1CA JUMP JUMPDEST DUP2 EQ PUSH2 0x2E7 JUMPI PUSH1 0x0 DUP1 REVERT JUMPDEST POP JUMP JUMPDEST PUSH1 0x0 DUP2 CALLDATALOAD SWAP1 POP PUSH2 0x2F9 DUP2 PUSH2 0x2D3 JUMP JUMPDEST SWAP3 SWAP2 POP POP JUMP JUMPDEST PUSH1 0x0 DUP1 PUSH1 0x0 DUP1 PUSH1 0x80 DUP6 DUP8 SUB SLT ISZERO PUSH2 0x319 JUMPI PUSH2 0x318 PUSH2 0x24A JUMP JUMPDEST JUMPDEST PUSH1 0x0 PUSH2 0x327 DUP8 DUP3 DUP9 ADD PUSH2 0x266 JUMP JUMPDEST SWAP5 POP POP PUSH1 0x20 PUSH2 0x338 DUP8 DUP3 DUP9 ADD PUSH2 0x292 JUMP JUMPDEST SWAP4 POP POP PUSH1 0x40 PUSH2 0x349 DUP8 DUP3 DUP9 ADD PUSH2 0x2BE JUMP JUMPDEST SWAP3 POP POP PUSH1 0x60 PUSH2 0x35A DUP8 DUP3 DUP9 ADD PUSH2 0x2EA JUMP JUMPDEST SWAP2 POP POP SWAP3 SWAP6 SWAP2 SWAP5 POP SWAP3 POP JUMP INVALID LOG2 PUSH5 0x6970667358 0x22 SLT KECCAK256 SELFDESTRUCT MSTORE8 PUSH19 0x7315739B81322726140A3B4440C5CDFE45825B 0x2C 0xB0 XOR 0xC5 SWAP13 SWAP4 ADDMOD DUP6 CALLVALUE SHL PUSH5 0x736F6C6343 STOP ADDMOD GT STOP CALLER "
		},
		"gasEstimates": {
			"creation": {
				"codeDepositCost": "184800",
				"executionCost": "226",
				"totalCost": "185026"
			},
			"external": {
				"get()": "9326",
				"set(uint256,address,bool,bytes1)": "96001"
			}
		},
		"methodIdentifiers": {
			"get()": "6d4ce63c",
			"set(uint256,address,bool,bytes1)": "bef2b818"
		}
	},
	"abi": [
		{
			"inputs": [],
			"name": "get",
			"outputs": [
				{
					"internalType": "uint256",
					"name": "",
					"type": "uint256"
				},
				{
					"internalType": "address",
					"name": "",
					"type": "address"
				},
				{
					"internalType": "bool",
					"name": "",
					"type": "bool"
				},
				{
					"internalType": "bytes1",
					"name": "",
					"type": "bytes1"
				}
			],
			"stateMutability": "view",
			"type": "function"
		},
		{
			"inputs": [
				{
					"internalType": "uint256",
					"name": "_num",
					"type": "uint256"
				},
				{
					"internalType": "address",
					"name": "_wall",
					"type": "address"
				},
				{
					"internalType": "bool",
					"name": "_sta",
					"type": "bool"
				},
				{
					"internalType": "bytes1",
					"name": "_sss",
					"type": "bytes1"
				}
			],
			"name": "set",
			"outputs": [],
			"stateMutability": "nonpayable",
			"type": "function"
		}
	]
}